{
  "contractName": "IPL",
  "abi": [
    {
      "inputs": [],
      "stateMutability": "nonpayable",
      "type": "constructor"
    },
    {
      "inputs": [
        {
          "internalType": "uint256",
          "name": "x",
          "type": "uint256"
        }
      ],
      "name": "vote",
      "outputs": [
        {
          "internalType": "uint256",
          "name": "",
          "type": "uint256"
        }
      ],
      "stateMutability": "nonpayable",
      "type": "function"
    },
    {
      "inputs": [
        {
          "internalType": "uint256",
          "name": "x",
          "type": "uint256"
        }
      ],
      "name": "getItem",
      "outputs": [
        {
          "internalType": "uint256",
          "name": "",
          "type": "uint256"
        }
      ],
      "stateMutability": "view",
      "type": "function",
      "constant": true
    }
  ],
  "bytecode": "0x608060405234801561001057600080fd5b5060005b600381101561004a57600080826003811061003257610031610050565b5b01819055508080610042906100b8565b915050610014565b50610100565b7f4e487b7100000000000000000000000000000000000000000000000000000000600052603260045260246000fd5b7f4e487b7100000000000000000000000000000000000000000000000000000000600052601160045260246000fd5b6000819050919050565b60006100c3826100ae565b91507fffffffffffffffffffffffffffffffffffffffffffffffffffffffffffffffff82036100f5576100f461007f565b5b600182019050919050565b61027d8061010f6000396000f3fe608060405234801561001057600080fd5b50600436106100365760003560e01c80630121b93f1461003b5780633129e7731461006b575b600080fd5b6100556004803603810190610050919061014a565b61009b565b6040516100629190610186565b60405180910390f35b6100856004803603810190610080919061014a565b6100f1565b6040516100929190610186565b60405180910390f35b60006003821080156100ae575060008210155b156100e757600082600381106100c7576100c66101a1565b5b0160008154809291906100d9906101ff565b9190505550600190506100ec565b600090505b919050565b6000808260038110610106576101056101a1565b5b01549050919050565b600080fd5b6000819050919050565b61012781610114565b811461013257600080fd5b50565b6000813590506101448161011e565b92915050565b6000602082840312156101605761015f61010f565b5b600061016e84828501610135565b91505092915050565b61018081610114565b82525050565b600060208201905061019b6000830184610177565b92915050565b7f4e487b7100000000000000000000000000000000000000000000000000000000600052603260045260246000fd5b7f4e487b7100000000000000000000000000000000000000000000000000000000600052601160045260246000fd5b600061020a82610114565b91507fffffffffffffffffffffffffffffffffffffffffffffffffffffffffffffffff820361023c5761023b6101d0565b5b60018201905091905056fea2646970667358221220cca065c021985f0695370e478974bc788913e86da6d9bbc2a09478499e38098f64736f6c634300080e0033",
  "immutableReferences": {},
  "source": "pragma solidity ^0.8.4;\ncontract IPL {\nuint256[3] items;\nconstructor() public\n{\n// setting up the items with their values\n   for (uint256 i = 0; i < 3; i++)\n       items[i] = 0;\n}\nfunction vote(uint256 x) public returns (uint256) \n{\n   if (x < 3 && x >= 0) {\n      items[x]++;\n      return 1;\n    }\n    return 0;\n  }\nfunction getItem(uint256 x) public view returns (uint256) \n{\n     return items[x];\n}\n}",
  "sourcePath": "C:\\Users\\sahil\\OneDrive\\Desktop\\moc\\contracts\\IPL.sol",
  "compiler": {
    "name": "solc",
    "version": "0.8.14+commit.80d49f37.Emscripten.clang"
  },
  "schemaVersion": "3.4.7",
  "updatedAt": "2022-05-26T06:29:55.400Z",
  "networkType": "ethereum",
  "devdoc": {
    "kind": "dev",
    "methods": {},
    "version": 1
  },
  "userdoc": {
    "kind": "user",
    "methods": {},
    "version": 1
  }
}